{
  "contractName": "DefaultValuesConstants",
  "abi": [
    {
      "inputs": [],
      "name": "PLACE",
      "outputs": [
        {
          "internalType": "string",
          "name": "",
          "type": "string"
        }
      ],
      "stateMutability": "view",
      "type": "function",
      "constant": true
    },
    {
      "inputs": [],
      "name": "SENDER",
      "outputs": [
        {
          "internalType": "address",
          "name": "",
          "type": "address"
        }
      ],
      "stateMutability": "view",
      "type": "function",
      "constant": true
    },
    {
      "inputs": [],
      "name": "b32",
      "outputs": [
        {
          "internalType": "bytes32",
          "name": "",
          "type": "bytes32"
        }
      ],
      "stateMutability": "view",
      "type": "function",
      "constant": true
    },
    {
      "inputs": [],
      "name": "boolValue",
      "outputs": [
        {
          "internalType": "bool",
          "name": "",
          "type": "bool"
        }
      ],
      "stateMutability": "view",
      "type": "function",
      "constant": true
    },
    {
      "inputs": [],
      "name": "intValue",
      "outputs": [
        {
          "internalType": "int256",
          "name": "",
          "type": "int256"
        }
      ],
      "stateMutability": "view",
      "type": "function",
      "constant": true
    },
    {
      "inputs": [],
      "name": "myAddress",
      "outputs": [
        {
          "internalType": "address",
          "name": "",
          "type": "address"
        }
      ],
      "stateMutability": "view",
      "type": "function",
      "constant": true
    },
    {
      "inputs": [],
      "name": "myPlace2",
      "outputs": [
        {
          "internalType": "string",
          "name": "",
          "type": "string"
        }
      ],
      "stateMutability": "view",
      "type": "function",
      "constant": true
    },
    {
      "inputs": [],
      "name": "owner",
      "outputs": [
        {
          "internalType": "address",
          "name": "",
          "type": "address"
        }
      ],
      "stateMutability": "view",
      "type": "function",
      "constant": true
    },
    {
      "inputs": [],
      "name": "place",
      "outputs": [
        {
          "internalType": "string",
          "name": "",
          "type": "string"
        }
      ],
      "stateMutability": "view",
      "type": "function",
      "constant": true
    },
    {
      "inputs": [],
      "name": "sender",
      "outputs": [
        {
          "internalType": "address",
          "name": "",
          "type": "address"
        }
      ],
      "stateMutability": "view",
      "type": "function",
      "constant": true
    },
    {
      "inputs": [],
      "name": "uintValue",
      "outputs": [
        {
          "internalType": "uint256",
          "name": "",
          "type": "uint256"
        }
      ],
      "stateMutability": "view",
      "type": "function",
      "constant": true
    }
  ],
  "bytecode": "0x60a06040526040518060400160405280600581526020017f4b6f6368690000000000000000000000000000000000000000000000000000008152506004908051906020019061004f92919061014a565b506040518060400160405280600581526020017f4b6f6368690000000000000000000000000000000000000000000000000000008152506005908051906020019061009b92919061014a565b507390f8bf6a479f320ead074411a4b0e7944ea8c9c1600660006101000a81548173ffffffffffffffffffffffffffffffffffffffff021916908373ffffffffffffffffffffffffffffffffffffffff1602179055507390f8bf6a479f320ead074411a4b0e7944ea8c9c173ffffffffffffffffffffffffffffffffffffffff1660809073ffffffffffffffffffffffffffffffffffffffff1681525034801561014457600080fd5b5061024d565b8280546101569061021c565b90600052602060002090601f01602090048101928261017857600085556101bf565b82601f1061019157805160ff19168380011785556101bf565b828001600101855582156101bf579182015b828111156101be5782518255916020019190600101906101a3565b5b5090506101cc91906101d0565b5090565b5b808211156101e95760008160009055506001016101d1565b5090565b7f4e487b7100000000000000000000000000000000000000000000000000000000600052602260045260246000fd5b6000600282049050600182168061023457607f821691505b602082108103610247576102466101ed565b5b50919050565b60805161067961026860003960006102f201526106796000f3fe608060405234801561001057600080fd5b50600436106100a95760003560e01c80638da5cb5b116100715780638da5cb5b1461014457806393af578d1461016257806393cca91814610180578063988817b01461019e578063ccbdd03a146101bc578063f8aab238146101da576100a9565b80630c4dae88146100ae57806326b85ee1146100cc578063535d499f146100ea5780636050f2f81461010857806367e404ce14610126575b600080fd5b6100b66101f8565b6040516100c39190610413565b60405180910390f35b6100d46101fe565b6040516100e1919061046f565b60405180910390f35b6100f2610224565b6040516100ff9190610523565b60405180910390f35b6101106102b2565b60405161011d919061046f565b60405180910390f35b61012e6102ca565b60405161013b919061046f565b60405180910390f35b61014c6102f0565b604051610159919061046f565b60405180910390f35b61016a610314565b6040516101779190610560565b60405180910390f35b610188610327565b6040516101959190610523565b60405180910390f35b6101a66103b5565b6040516101b39190610594565b60405180910390f35b6101c46103bb565b6040516101d19190610523565b60405180910390f35b6101e26103f4565b6040516101ef91906105c8565b60405180910390f35b60015481565b600260019054906101000a900473ffffffffffffffffffffffffffffffffffffffff1681565b6004805461023190610612565b80601f016020809104026020016040519081016040528092919081815260200182805461025d90610612565b80156102aa5780601f1061027f576101008083540402835291602001916102aa565b820191906000526020600020905b81548152906001019060200180831161028d57829003601f168201915b505050505081565b7390f8bf6a479f320ead074411a4b0e7944ea8c9c181565b600660009054906101000a900473ffffffffffffffffffffffffffffffffffffffff1681565b7f000000000000000000000000000000000000000000000000000000000000000081565b600260009054906101000a900460ff1681565b6005805461033490610612565b80601f016020809104026020016040519081016040528092919081815260200182805461036090610612565b80156103ad5780601f10610382576101008083540402835291602001916103ad565b820191906000526020600020905b81548152906001019060200180831161039057829003601f168201915b505050505081565b60005481565b6040518060400160405280600581526020017f4b6f63686900000000000000000000000000000000000000000000000000000081525081565b60035481565b6000819050919050565b61040d816103fa565b82525050565b60006020820190506104286000830184610404565b92915050565b600073ffffffffffffffffffffffffffffffffffffffff82169050919050565b60006104598261042e565b9050919050565b6104698161044e565b82525050565b60006020820190506104846000830184610460565b92915050565b600081519050919050565b600082825260208201905092915050565b60005b838110156104c45780820151818401526020810190506104a9565b838111156104d3576000848401525b50505050565b6000601f19601f8301169050919050565b60006104f58261048a565b6104ff8185610495565b935061050f8185602086016104a6565b610518816104d9565b840191505092915050565b6000602082019050818103600083015261053d81846104ea565b905092915050565b60008115159050919050565b61055a81610545565b82525050565b60006020820190506105756000830184610551565b92915050565b6000819050919050565b61058e8161057b565b82525050565b60006020820190506105a96000830184610585565b92915050565b6000819050919050565b6105c2816105af565b82525050565b60006020820190506105dd60008301846105b9565b92915050565b7f4e487b7100000000000000000000000000000000000000000000000000000000600052602260045260246000fd5b6000600282049050600182168061062a57607f821691505b60208210810361063d5761063c6105e3565b5b5091905056fea26469706673582212204110b289e85c7bbf93e76667ebcaac5103a2367f80ecd17ed323eb4e0484fb7464736f6c634300080e0033",
  "immutableReferences": {
    "29": [
      {
        "length": 32,
        "start": 754
      }
    ]
  },
  "source": "// SPDX-License-Identifier: MIT\npragma solidity >=0.4.22 <0.9.0;\n\n// Default Values / Constants / Immutable\ncontract DefaultValuesConstants {\n    // Default Value\n    uint public uintValue;      // 0\n    int public intValue;        // 0\n    bool public boolValue;      // false\n\n    address public myAddress;   // 0x0000000000000000000000000000000000000000\n    bytes32 public b32;         // 0x0000000000000000000000000000000000000000000000000000000000000000\n\n    string public myPlace2 = \"Kochi\";\n\n    // 21885 gas\n    // String \n    string public constant PLACE = \"Kochi\";\n    // 24541 gas\n    // String \n    string public place = \"Kochi\";\n\n    // Gas cost is very High without Constants\n    // 23667 gas\n    // Declare state variable as Constant to save Gas\n    address public sender = 0x90F8bf6A479f320ead074411a4B0e7944Ea8c9C1;\n\n    // Gas Cost is less when you use Constant \n    // 21509 gas \n    // Declare state variable as Constant to save Gas\n    address public constant SENDER = 0x90F8bf6A479f320ead074411a4B0e7944Ea8c9C1;\n\n    // Gas Cost is very less for immmutable State Variable\n    // 21442 gas\n    // Immutable State variable - Initialized ONLY ONCE when its deployed\n    address public immutable owner = 0x90F8bf6A479f320ead074411a4B0e7944Ea8c9C1;\n}",
  "sourcePath": "/Users/arafkarsh/workspace/blockchain/blockchain-qs/ethereum/truffle-ex-2/contracts/DefaultValuesConstants.sol",
  "compiler": {
    "name": "solc",
    "version": "0.8.14+commit.80d49f37.Emscripten.clang"
  },
  "schemaVersion": "3.4.7",
  "updatedAt": "2022-06-09T02:18:48.940Z",
  "networkType": "ethereum",
  "devdoc": {
    "kind": "dev",
    "methods": {},
    "version": 1
  },
  "userdoc": {
    "kind": "user",
    "methods": {},
    "version": 1
  }
}