{
  "contractName": "FunctionModifier",
  "abi": [
    {
      "inputs": [],
      "name": "running",
      "outputs": [
        {
          "internalType": "bool",
          "name": "",
          "type": "bool"
        }
      ],
      "stateMutability": "view",
      "type": "function",
      "constant": true
    },
    {
      "inputs": [],
      "name": "increment",
      "outputs": [],
      "stateMutability": "nonpayable",
      "type": "function"
    },
    {
      "inputs": [],
      "name": "decrement",
      "outputs": [],
      "stateMutability": "nonpayable",
      "type": "function"
    },
    {
      "inputs": [
        {
          "internalType": "uint256",
          "name": "_value",
          "type": "uint256"
        }
      ],
      "name": "incrementBy",
      "outputs": [],
      "stateMutability": "nonpayable",
      "type": "function"
    },
    {
      "inputs": [],
      "name": "stop",
      "outputs": [],
      "stateMutability": "nonpayable",
      "type": "function"
    },
    {
      "inputs": [],
      "name": "start",
      "outputs": [],
      "stateMutability": "nonpayable",
      "type": "function"
    },
    {
      "inputs": [],
      "name": "getCounter",
      "outputs": [
        {
          "internalType": "uint256",
          "name": "",
          "type": "uint256"
        }
      ],
      "stateMutability": "view",
      "type": "function",
      "constant": true
    }
  ],
  "bytecode": "0x608060405260016000806101000a81548160ff02191690831515021790555034801561002a57600080fd5b506105888061003a6000396000f3fe608060405234801561001057600080fd5b506004361061007d5760003560e01c80638ada066e1161005b5780638ada066e146100b2578063be9a6555146100d0578063d09de08a146100da578063d85bd526146100e45761007d565b806303df179c1461008257806307da68f51461009e5780632baeceb7146100a8575b600080fd5b61009c60048036038101906100979190610323565b610102565b005b6100a66101b7565b005b6100b06101d3565b005b6100ba610242565b6040516100c7919061035f565b60405180910390f35b6100d861024c565b005b6100e2610268565b005b6100ec6102d7565b6040516100f99190610395565b60405180910390f35b6001151560008054906101000a900460ff16151514610156576040517f08c379a000000000000000000000000000000000000000000000000000000000815260040161014d9061040d565b60405180910390fd5b806064811161019a576040517f08c379a000000000000000000000000000000000000000000000000000000000815260040161019190610479565b60405180910390fd5b81600160008282546101ac91906104c8565b925050819055505050565b60008060006101000a81548160ff021916908315150217905550565b6001151560008054906101000a900460ff16151514610227576040517f08c379a000000000000000000000000000000000000000000000000000000000815260040161021e9061040d565b60405180910390fd5b6001806000828254610239919061051e565b92505081905550565b6000600154905090565b60016000806101000a81548160ff021916908315150217905550565b6001151560008054906101000a900460ff161515146102bc576040517f08c379a00000000000000000000000000000000000000000000000000000000081526004016102b39061040d565b60405180910390fd5b60018060008282546102ce91906104c8565b92505081905550565b60008054906101000a900460ff1681565b600080fd5b6000819050919050565b610300816102ed565b811461030b57600080fd5b50565b60008135905061031d816102f7565b92915050565b600060208284031215610339576103386102e8565b5b60006103478482850161030e565b91505092915050565b610359816102ed565b82525050565b60006020820190506103746000830184610350565b92915050565b60008115159050919050565b61038f8161037a565b82525050565b60006020820190506103aa6000830184610386565b92915050565b600082825260208201905092915050565b7f52756e6e696e67203d2054727565000000000000000000000000000000000000600082015250565b60006103f7600e836103b0565b9150610402826103c1565b602082019050919050565b60006020820190508181036000830152610426816103ea565b9050919050565b7f56616c7565203c20313031000000000000000000000000000000000000000000600082015250565b6000610463600b836103b0565b915061046e8261042d565b602082019050919050565b6000602082019050818103600083015261049281610456565b9050919050565b7f4e487b7100000000000000000000000000000000000000000000000000000000600052601160045260246000fd5b60006104d3826102ed565b91506104de836102ed565b9250827fffffffffffffffffffffffffffffffffffffffffffffffffffffffffffffffff0382111561051357610512610499565b5b828201905092915050565b6000610529826102ed565b9150610534836102ed565b92508282101561054757610546610499565b5b82820390509291505056fea264697066735822122036abb46dfc22815457496b7ea7e4df15b7b811a1cd07fa8a09cf93d189cdcf4264736f6c634300080e0033",
  "immutableReferences": {},
  "source": "// SPDX-License-Identifier: MIT\npragma solidity >=0.4.22 <0.9.0;\n\n// Functions Modifier: Basic / Inputs / Sandwich\ncontract FunctionModifier {\n    bool public running = true;\n    uint private counter;\n    // Basic Modifier\n    modifier whenRunning() {\n        require(running == true, \"Running = True\");\n        _; // Execute the target Function Code\n    }\n    // Increment the Counter ONLY when Running = true\n    function increment() external whenRunning {\n        counter += 1;\n    }\n    // Decrement the Counter ONLY when Running = true\n    function decrement() external whenRunning {\n        counter -= 1;\n    }\n    // Modifier with Inputs: Value > Limit\n    modifier min(uint _value) {\n        require(_value > 100, \"Value < 101\");\n        _; // Execute the target function code\n    }\n    // Check the input _value against min value in the Modifier\n    function incrementBy(uint _value) external whenRunning min(_value) {\n        counter += _value;\n    }\n    // Stop the Contract\n    function stop() external {\n        running = false;\n    }\n    // Start the Contract\n    function start() external {\n        running = true;\n    }\n    function getCounter() external view returns (uint) {\n        return counter;\n    }\n\n}",
  "sourcePath": "/Users/arafkarsh/workspace/blockchain/blockchain-qs/ethereum/truffle-ex-2/contracts/FunctionModifier.sol",
  "compiler": {
    "name": "solc",
    "version": "0.8.14+commit.80d49f37.Emscripten.clang"
  },
  "schemaVersion": "3.4.7",
  "updatedAt": "2022-06-07T16:20:43.445Z",
  "networkType": "ethereum",
  "devdoc": {
    "kind": "dev",
    "methods": {},
    "version": 1
  },
  "userdoc": {
    "kind": "user",
    "methods": {},
    "version": 1
  }
}