{
  "contractName": "LanguageFeatures",
  "abi": [
    {
      "anonymous": false,
      "inputs": [
        {
          "indexed": false,
          "internalType": "uint256",
          "name": "value",
          "type": "uint256"
        }
      ],
      "name": "ValueChanged",
      "type": "event"
    },
    {
      "inputs": [
        {
          "internalType": "uint256",
          "name": "_value",
          "type": "uint256"
        }
      ],
      "name": "store",
      "outputs": [],
      "stateMutability": "nonpayable",
      "type": "function"
    },
    {
      "inputs": [],
      "name": "retrieve",
      "outputs": [
        {
          "internalType": "uint256",
          "name": "",
          "type": "uint256"
        }
      ],
      "stateMutability": "view",
      "type": "function",
      "constant": true
    },
    {
      "inputs": [
        {
          "internalType": "uint256",
          "name": "x",
          "type": "uint256"
        },
        {
          "internalType": "uint256",
          "name": "y",
          "type": "uint256"
        }
      ],
      "name": "add",
      "outputs": [
        {
          "internalType": "uint256",
          "name": "",
          "type": "uint256"
        }
      ],
      "stateMutability": "pure",
      "type": "function",
      "constant": true
    },
    {
      "inputs": [
        {
          "internalType": "uint256",
          "name": "x",
          "type": "uint256"
        },
        {
          "internalType": "uint256",
          "name": "y",
          "type": "uint256"
        }
      ],
      "name": "sub",
      "outputs": [
        {
          "internalType": "uint256",
          "name": "",
          "type": "uint256"
        }
      ],
      "stateMutability": "pure",
      "type": "function",
      "constant": true
    }
  ],
  "bytecode": "0x60806040526040518060400160405280601581526020017f48656c6c6f20576f726c64202d2054727566666c6500000000000000000000008152506001908051906020019061004f929190610062565b5034801561005c57600080fd5b50610165565b82805461006e90610134565b90600052602060002090601f01602090048101928261009057600085556100d7565b82601f106100a957805160ff19168380011785556100d7565b828001600101855582156100d7579182015b828111156100d65782518255916020019190600101906100bb565b5b5090506100e491906100e8565b5090565b5b808211156101015760008160009055506001016100e9565b5090565b7f4e487b7100000000000000000000000000000000000000000000000000000000600052602260045260246000fd5b6000600282049050600182168061014c57607f821691505b60208210810361015f5761015e610105565b5b50919050565b610324806101746000396000f3fe608060405234801561001057600080fd5b506004361061004c5760003560e01c80632e64cec1146100515780636057361d1461006f578063771602f71461008b578063b67d77c5146100bb575b600080fd5b6100596100eb565b604051610066919061017c565b60405180910390f35b610089600480360381019061008491906101c8565b6100f4565b005b6100a560048036038101906100a091906101f5565b610137565b6040516100b2919061017c565b60405180910390f35b6100d560048036038101906100d091906101f5565b61014d565b6040516100e2919061017c565b60405180910390f35b60008054905090565b806000819055507f93fe6d397c74fdf1402a8b72e47b68512f0510d7b98a4bc4cbdf6ac7108b3c5960005460405161012c919061017c565b60405180910390a150565b600081836101459190610264565b905092915050565b6000818361015b91906102ba565b905092915050565b6000819050919050565b61017681610163565b82525050565b6000602082019050610191600083018461016d565b92915050565b600080fd5b6101a581610163565b81146101b057600080fd5b50565b6000813590506101c28161019c565b92915050565b6000602082840312156101de576101dd610197565b5b60006101ec848285016101b3565b91505092915050565b6000806040838503121561020c5761020b610197565b5b600061021a858286016101b3565b925050602061022b858286016101b3565b9150509250929050565b7f4e487b7100000000000000000000000000000000000000000000000000000000600052601160045260246000fd5b600061026f82610163565b915061027a83610163565b9250827fffffffffffffffffffffffffffffffffffffffffffffffffffffffffffffffff038211156102af576102ae610235565b5b828201905092915050565b60006102c582610163565b91506102d083610163565b9250828210156102e3576102e2610235565b5b82820390509291505056fea2646970667358221220b11bfe9531cdb4ca367b3472d7073bfa577d6802da82fc90d0c07099c1a7765c64736f6c634300080e0033",
  "immutableReferences": {},
  "source": "// SPDX-License-Identifier: MIT\npragma solidity >=0.4.22 <0.9.0;\n\ncontract LanguageFeatures {\n  uint256 private value;\n  string private hello = \"Hello World - Truffle\";\n\n  // Emitted when the stored value changes\n  event ValueChanged(uint256 value);\n\n  // Stores a new value in the contract\n  function store(uint256 _value) public {\n      value = _value;\n      emit ValueChanged(value);\n  }\n\n  // Reads the last stored value\n  function retrieve() public view returns (uint256) {\n      return value;\n  }\n\n  // External and Pure (Read only) Calls\n  function add(uint x, uint y) external pure returns(uint) {\n    return x+y;\n  }\n\n  function sub(uint x, uint y) external pure returns(uint) {\n    return x-y;\n  }\n\n }\n",
  "sourcePath": "/Users/arafkarsh/workspace/blockchain/blockchain-qs/ethereum/truffle-ex-2/contracts/LanguageFeatures.sol",
  "compiler": {
    "name": "solc",
    "version": "0.8.14+commit.80d49f37.Emscripten.clang"
  },
  "schemaVersion": "3.4.7",
  "updatedAt": "2022-06-07T09:23:08.830Z",
  "networkType": "ethereum",
  "devdoc": {
    "kind": "dev",
    "methods": {},
    "version": 1
  },
  "userdoc": {
    "kind": "user",
    "methods": {},
    "version": 1
  }
}