{
  "contractName": "LanguageFeatures",
  "abi": [
    {
      "inputs": [],
      "name": "greeting",
      "outputs": [
        {
          "internalType": "string",
          "name": "",
          "type": "string"
        },
        {
          "internalType": "string",
          "name": "",
          "type": "string"
        }
      ],
      "stateMutability": "view",
      "type": "function",
      "constant": true
    },
    {
      "inputs": [],
      "name": "globalVars",
      "outputs": [
        {
          "internalType": "address",
          "name": "",
          "type": "address"
        },
        {
          "internalType": "uint256",
          "name": "",
          "type": "uint256"
        },
        {
          "internalType": "uint256",
          "name": "",
          "type": "uint256"
        }
      ],
      "stateMutability": "view",
      "type": "function",
      "constant": true
    },
    {
      "inputs": [
        {
          "internalType": "uint256",
          "name": "x",
          "type": "uint256"
        },
        {
          "internalType": "uint256",
          "name": "y",
          "type": "uint256"
        }
      ],
      "name": "add",
      "outputs": [
        {
          "internalType": "uint256",
          "name": "",
          "type": "uint256"
        }
      ],
      "stateMutability": "pure",
      "type": "function",
      "constant": true
    },
    {
      "inputs": [
        {
          "internalType": "uint256",
          "name": "x",
          "type": "uint256"
        },
        {
          "internalType": "uint256",
          "name": "y",
          "type": "uint256"
        }
      ],
      "name": "sub",
      "outputs": [
        {
          "internalType": "uint256",
          "name": "",
          "type": "uint256"
        }
      ],
      "stateMutability": "pure",
      "type": "function",
      "constant": true
    }
  ],
  "bytecode": "0x60806040526040518060400160405280601c81526020017f48656c6c6f20576f726c64202d2054727566666c65202d2045782d32000000008152506000908051906020019061004f929190610062565b5034801561005c57600080fd5b50610165565b82805461006e90610134565b90600052602060002090601f01602090048101928261009057600085556100d7565b82601f106100a957805160ff19168380011785556100d7565b828001600101855582156100d7579182015b828111156100d65782518255916020019190600101906100bb565b5b5090506100e491906100e8565b5090565b5b808211156101015760008160009055506001016100e9565b5090565b7f4e487b7100000000000000000000000000000000000000000000000000000000600052602260045260246000fd5b6000600282049050600182168061014c57607f821691505b60208210810361015f5761015e610105565b5b50919050565b610551806101746000396000f3fe608060405234801561001057600080fd5b506004361061004c5760003560e01c8063771602f7146100515780637e6230f314610081578063b67d77c5146100a1578063ef690cc0146100d1575b600080fd5b61006b60048036038101906100669190610250565b6100f0565b604051610078919061029f565b60405180910390f35b610089610106565b604051610098939291906102fb565b60405180910390f35b6100bb60048036038101906100b69190610250565b61012a565b6040516100c8919061029f565b60405180910390f35b6100d9610140565b6040516100e79291906103cb565b60405180910390f35b600081836100fe9190610431565b905092915050565b60008060008033905060004290506000439050828282955095509550505050909192565b600081836101389190610487565b905092915050565b60608060006040518060400160405280600b81526020017f4c6f63616c2048656c6c6f000000000000000000000000000000000000000000815250905060008181805461018c906104ea565b80601f01602080910402602001604051908101604052809291908181526020018280546101b8906104ea565b80156102055780601f106101da57610100808354040283529160200191610205565b820191906000526020600020905b8154815290600101906020018083116101e857829003601f168201915b5050505050915092509250509091565b600080fd5b6000819050919050565b61022d8161021a565b811461023857600080fd5b50565b60008135905061024a81610224565b92915050565b6000806040838503121561026757610266610215565b5b60006102758582860161023b565b92505060206102868582860161023b565b9150509250929050565b6102998161021a565b82525050565b60006020820190506102b46000830184610290565b92915050565b600073ffffffffffffffffffffffffffffffffffffffff82169050919050565b60006102e5826102ba565b9050919050565b6102f5816102da565b82525050565b600060608201905061031060008301866102ec565b61031d6020830185610290565b61032a6040830184610290565b949350505050565b600081519050919050565b600082825260208201905092915050565b60005b8381101561036c578082015181840152602081019050610351565b8381111561037b576000848401525b50505050565b6000601f19601f8301169050919050565b600061039d82610332565b6103a7818561033d565b93506103b781856020860161034e565b6103c081610381565b840191505092915050565b600060408201905081810360008301526103e58185610392565b905081810360208301526103f98184610392565b90509392505050565b7f4e487b7100000000000000000000000000000000000000000000000000000000600052601160045260246000fd5b600061043c8261021a565b91506104478361021a565b9250827fffffffffffffffffffffffffffffffffffffffffffffffffffffffffffffffff0382111561047c5761047b610402565b5b828201905092915050565b60006104928261021a565b915061049d8361021a565b9250828210156104b0576104af610402565b5b828203905092915050565b7f4e487b7100000000000000000000000000000000000000000000000000000000600052602260045260246000fd5b6000600282049050600182168061050257607f821691505b602082108103610515576105146104bb565b5b5091905056fea264697066735822122095a366103b39092858fd1d104c5bbd17cb0d4d102806ab8413e54e039bc2e53b64736f6c634300080e0033",
  "immutableReferences": {},
  "source": "// SPDX-License-Identifier: MIT\npragma solidity >=0.4.22 <0.9.0;\n/**\n * State / Local / Global Variables\n * Functions View and Pure\n */\ncontract LanguageFeatures {\n  // State variable are stored in the Blockchain\n  string private hello = \"Hello World - Truffle - Ex-2\";\n\n  // Returns the Greetings - Hello (A State Variable)\n  // View is used to do read-only view of the blockchain data\n  function greeting() public view returns (string memory, string memory) {\n      // Local Variable\n      string memory hello2 = \"Local Hello\";\n      return (hello, hello2);\n  }\n\n  // Global Variables - Part of Blockchain Data\n  function globalVars() external view returns (address, uint, uint) {\n      address sender = msg.sender;\n      uint time = block.timestamp;\n      uint number = block.number;\n      return (sender, time, number);\n  }\n\n  // External and Pure (Read only) Calls for local variables\n  function add(uint x, uint y) external pure returns(uint) {\n    return x+y;\n  }\n\n  // External and Pure (Read only) Calls\n  function sub(uint x, uint y) external pure returns(uint) {\n    return x-y;\n  }\n\n }\n",
  "sourcePath": "/Users/arafkarsh/workspace/blockchain/blockchain-qs/ethereum/truffle-ex-2/contracts/LanguageFeatures.sol",
  "compiler": {
    "name": "solc",
    "version": "0.8.14+commit.80d49f37.Emscripten.clang"
  },
  "schemaVersion": "3.4.7",
  "updatedAt": "2022-06-07T12:00:08.271Z",
  "networkType": "ethereum",
  "devdoc": {
    "kind": "dev",
    "methods": {},
    "version": 1
  },
  "userdoc": {
    "kind": "user",
    "methods": {},
    "notice": "State / Local / Global Variables Functions View and Pure",
    "version": 1
  }
}