{
  "contractName": "LanguageFeatures",
  "abi": [
    {
      "inputs": [],
      "name": "greeting",
      "outputs": [
        {
          "internalType": "string",
          "name": "",
          "type": "string"
        }
      ],
      "stateMutability": "view",
      "type": "function",
      "constant": true
    },
    {
      "inputs": [
        {
          "internalType": "uint256",
          "name": "x",
          "type": "uint256"
        },
        {
          "internalType": "uint256",
          "name": "y",
          "type": "uint256"
        }
      ],
      "name": "add",
      "outputs": [
        {
          "internalType": "uint256",
          "name": "",
          "type": "uint256"
        }
      ],
      "stateMutability": "pure",
      "type": "function",
      "constant": true
    },
    {
      "inputs": [
        {
          "internalType": "uint256",
          "name": "x",
          "type": "uint256"
        },
        {
          "internalType": "uint256",
          "name": "y",
          "type": "uint256"
        }
      ],
      "name": "sub",
      "outputs": [
        {
          "internalType": "uint256",
          "name": "",
          "type": "uint256"
        }
      ],
      "stateMutability": "pure",
      "type": "function",
      "constant": true
    }
  ],
  "bytecode": "0x60806040526040518060400160405280601c81526020017f48656c6c6f20576f726c64202d2054727566666c65202d2045782d32000000008152506000908051906020019061004f929190610062565b5034801561005c57600080fd5b50610165565b82805461006e90610134565b90600052602060002090601f01602090048101928261009057600085556100d7565b82601f106100a957805160ff19168380011785556100d7565b828001600101855582156100d7579182015b828111156100d65782518255916020019190600101906100bb565b5b5090506100e491906100e8565b5090565b5b808211156101015760008160009055506001016100e9565b5090565b7f4e487b7100000000000000000000000000000000000000000000000000000000600052602260045260246000fd5b6000600282049050600182168061014c57607f821691505b60208210810361015f5761015e610105565b5b50919050565b610431806101746000396000f3fe608060405234801561001057600080fd5b50600436106100415760003560e01c8063771602f714610046578063b67d77c514610076578063ef690cc0146100a6575b600080fd5b610060600480360381019061005b91906101bd565b6100c4565b60405161006d919061020c565b60405180910390f35b610090600480360381019061008b91906101bd565b6100da565b60405161009d919061020c565b60405180910390f35b6100ae6100f0565b6040516100bb91906102c0565b60405180910390f35b600081836100d29190610311565b905092915050565b600081836100e89190610367565b905092915050565b6060600080546100ff906103ca565b80601f016020809104026020016040519081016040528092919081815260200182805461012b906103ca565b80156101785780601f1061014d57610100808354040283529160200191610178565b820191906000526020600020905b81548152906001019060200180831161015b57829003601f168201915b5050505050905090565b600080fd5b6000819050919050565b61019a81610187565b81146101a557600080fd5b50565b6000813590506101b781610191565b92915050565b600080604083850312156101d4576101d3610182565b5b60006101e2858286016101a8565b92505060206101f3858286016101a8565b9150509250929050565b61020681610187565b82525050565b600060208201905061022160008301846101fd565b92915050565b600081519050919050565b600082825260208201905092915050565b60005b83811015610261578082015181840152602081019050610246565b83811115610270576000848401525b50505050565b6000601f19601f8301169050919050565b600061029282610227565b61029c8185610232565b93506102ac818560208601610243565b6102b581610276565b840191505092915050565b600060208201905081810360008301526102da8184610287565b905092915050565b7f4e487b7100000000000000000000000000000000000000000000000000000000600052601160045260246000fd5b600061031c82610187565b915061032783610187565b9250827fffffffffffffffffffffffffffffffffffffffffffffffffffffffffffffffff0382111561035c5761035b6102e2565b5b828201905092915050565b600061037282610187565b915061037d83610187565b9250828210156103905761038f6102e2565b5b828203905092915050565b7f4e487b7100000000000000000000000000000000000000000000000000000000600052602260045260246000fd5b600060028204905060018216806103e257607f821691505b6020821081036103f5576103f461039b565b5b5091905056fea2646970667358221220c35558df2033dfd29c58cb05e131330e941cabce4f585f45c72648f1cd0c159364736f6c634300080e0033",
  "immutableReferences": {},
  "source": "// SPDX-License-Identifier: MIT\npragma solidity >=0.4.22 <0.9.0;\n\ncontract LanguageFeatures {\n\n  string private hello = \"Hello World - Truffle - Ex-2\";\n\n  // Returns the Greetings - Hello World\n  function greeting() public view returns (string memory) {\n      return hello;\n  }\n\n  // External and Pure (Read only) Calls\n  function add(uint x, uint y) external pure returns(uint) {\n    return x+y;\n  }\n\n  // External and Pure (Read only) Calls\n  function sub(uint x, uint y) external pure returns(uint) {\n    return x-y;\n  }\n\n }\n",
  "sourcePath": "/Users/arafkarsh/workspace/blockchain/blockchain-qs/ethereum/truffle-ex-2/contracts/LanguageFeatures.sol",
  "compiler": {
    "name": "solc",
    "version": "0.8.14+commit.80d49f37.Emscripten.clang"
  },
  "schemaVersion": "3.4.7",
  "updatedAt": "2022-06-07T09:40:24.313Z",
  "networkType": "ethereum",
  "devdoc": {
    "kind": "dev",
    "methods": {},
    "version": 1
  },
  "userdoc": {
    "kind": "user",
    "methods": {},
    "version": 1
  }
}