{
  "contractName": "VariablesFunctions",
  "abi": [
    {
      "anonymous": false,
      "inputs": [
        {
          "indexed": false,
          "internalType": "string",
          "name": "func",
          "type": "string"
        },
        {
          "indexed": false,
          "internalType": "address",
          "name": "sender",
          "type": "address"
        },
        {
          "indexed": false,
          "internalType": "uint256",
          "name": "value",
          "type": "uint256"
        },
        {
          "indexed": false,
          "internalType": "bytes",
          "name": "data",
          "type": "bytes"
        }
      ],
      "name": "Log",
      "type": "event"
    },
    {
      "stateMutability": "payable",
      "type": "fallback",
      "payable": true
    },
    {
      "inputs": [],
      "name": "specialNumber",
      "outputs": [
        {
          "internalType": "uint256",
          "name": "",
          "type": "uint256"
        }
      ],
      "stateMutability": "view",
      "type": "function",
      "constant": true
    },
    {
      "stateMutability": "payable",
      "type": "receive",
      "payable": true
    },
    {
      "inputs": [],
      "name": "greeting",
      "outputs": [
        {
          "internalType": "string",
          "name": "",
          "type": "string"
        },
        {
          "internalType": "string",
          "name": "",
          "type": "string"
        }
      ],
      "stateMutability": "view",
      "type": "function",
      "constant": true
    },
    {
      "inputs": [],
      "name": "globalVars",
      "outputs": [
        {
          "internalType": "address",
          "name": "",
          "type": "address"
        },
        {
          "internalType": "uint256",
          "name": "",
          "type": "uint256"
        },
        {
          "internalType": "uint256",
          "name": "",
          "type": "uint256"
        }
      ],
      "stateMutability": "view",
      "type": "function",
      "constant": true
    },
    {
      "inputs": [
        {
          "internalType": "uint256",
          "name": "x",
          "type": "uint256"
        },
        {
          "internalType": "uint256",
          "name": "y",
          "type": "uint256"
        }
      ],
      "name": "add",
      "outputs": [
        {
          "internalType": "uint256",
          "name": "",
          "type": "uint256"
        }
      ],
      "stateMutability": "pure",
      "type": "function",
      "constant": true
    },
    {
      "inputs": [
        {
          "internalType": "uint256",
          "name": "y",
          "type": "uint256"
        }
      ],
      "name": "sub",
      "outputs": [
        {
          "internalType": "uint256",
          "name": "",
          "type": "uint256"
        }
      ],
      "stateMutability": "view",
      "type": "function",
      "constant": true
    }
  ],
  "bytecode": "0x60806040526040518060400160405280601c81526020017f48656c6c6f20576f726c64202d2054727566666c65202d2045782d32000000008152506000908051906020019061004f929190610067565b50601560015534801561006157600080fd5b5061016a565b82805461007390610139565b90600052602060002090601f01602090048101928261009557600085556100dc565b82601f106100ae57805160ff19168380011785556100dc565b828001600101855582156100dc579182015b828111156100db5782518255916020019190600101906100c0565b5b5090506100e991906100ed565b5090565b5b808211156101065760008160009055506001016100ee565b5090565b7f4e487b7100000000000000000000000000000000000000000000000000000000600052602260045260246000fd5b6000600282049050600182168061015157607f821691505b6020821081036101645761016361010a565b5b50919050565b61080e806101796000396000f3fe60806040526004361061004e5760003560e01c806327ee58a6146100ce57806373f2b2de1461010b578063771602f7146101365780637e6230f314610173578063ef690cc0146101a05761008e565b3661008e577ff7f75251dee7d7fc22deac3247729ebe7c86541f35930bf10c2a4207479a3b6c33346040516100849291906103e6565b60405180910390a1005b7ff7f75251dee7d7fc22deac3247729ebe7c86541f35930bf10c2a4207479a3b6c33346000366040516100c494939291906104ce565b60405180910390a1005b3480156100da57600080fd5b506100f560048036038101906100f09190610552565b6101cc565b604051610102919061057f565b60405180910390f35b34801561011757600080fd5b506101206101e3565b60405161012d919061057f565b60405180910390f35b34801561014257600080fd5b5061015d6004803603810190610158919061059a565b6101e9565b60405161016a919061057f565b60405180910390f35b34801561017f57600080fd5b506101886101ff565b604051610197939291906105da565b60405180910390f35b3480156101ac57600080fd5b506101b5610223565b6040516101c3929190610688565b60405180910390f35b6000816001546101dc91906106ee565b9050919050565b60015481565b600081836101f79190610722565b905092915050565b60008060008033905060004290506000439050828282955095509550505050909192565b60608060006040518060400160405280600b81526020017f4c6f63616c2048656c6c6f000000000000000000000000000000000000000000815250905060008181805461026f906107a7565b80601f016020809104026020016040519081016040528092919081815260200182805461029b906107a7565b80156102e85780601f106102bd576101008083540402835291602001916102e8565b820191906000526020600020905b8154815290600101906020018083116102cb57829003601f168201915b5050505050915092509250509091565b600082825260208201905092915050565b7f7265636569766500000000000000000000000000000000000000000000000000600082015250565b600061033f6007836102f8565b915061034a82610309565b602082019050919050565b600073ffffffffffffffffffffffffffffffffffffffff82169050919050565b600061038082610355565b9050919050565b61039081610375565b82525050565b6000819050919050565b6103a981610396565b82525050565b600082825260208201905092915050565b50565b60006103d06000836103af565b91506103db826103c0565b600082019050919050565b600060808201905081810360008301526103ff81610332565b905061040e6020830185610387565b61041b60408301846103a0565b818103606083015261042c816103c3565b90509392505050565b7f66616c6c6261636b000000000000000000000000000000000000000000000000600082015250565b600061046b6008836102f8565b915061047682610435565b602082019050919050565b82818337600083830152505050565b6000601f19601f8301169050919050565b60006104ad83856103af565b93506104ba838584610481565b6104c383610490565b840190509392505050565b600060808201905081810360008301526104e78161045e565b90506104f66020830187610387565b61050360408301866103a0565b81810360608301526105168184866104a1565b905095945050505050565b600080fd5b61052f81610396565b811461053a57600080fd5b50565b60008135905061054c81610526565b92915050565b60006020828403121561056857610567610521565b5b60006105768482850161053d565b91505092915050565b600060208201905061059460008301846103a0565b92915050565b600080604083850312156105b1576105b0610521565b5b60006105bf8582860161053d565b92505060206105d08582860161053d565b9150509250929050565b60006060820190506105ef6000830186610387565b6105fc60208301856103a0565b61060960408301846103a0565b949350505050565b600081519050919050565b60005b8381101561063a57808201518184015260208101905061061f565b83811115610649576000848401525b50505050565b600061065a82610611565b61066481856102f8565b935061067481856020860161061c565b61067d81610490565b840191505092915050565b600060408201905081810360008301526106a2818561064f565b905081810360208301526106b6818461064f565b90509392505050565b7f4e487b7100000000000000000000000000000000000000000000000000000000600052601160045260246000fd5b60006106f982610396565b915061070483610396565b925082821015610717576107166106bf565b5b828203905092915050565b600061072d82610396565b915061073883610396565b9250827fffffffffffffffffffffffffffffffffffffffffffffffffffffffffffffffff0382111561076d5761076c6106bf565b5b828201905092915050565b7f4e487b7100000000000000000000000000000000000000000000000000000000600052602260045260246000fd5b600060028204905060018216806107bf57607f821691505b6020821081036107d2576107d1610778565b5b5091905056fea2646970667358221220e2de9a56355a0becf7599170c1139466f48f8594f935b8df9c18c439a295abcc64736f6c634300080e0033",
  "immutableReferences": {},
  "source": "// SPDX-License-Identifier: MIT\npragma solidity >=0.4.22 <0.9.0;\n // State / Local / Global Variables\n // Functions View and Pure, Fallback and receive functions\ncontract VariablesFunctions {\n  // Function Visibility\n  // ----------------------------------------------------------------------\n  // private  - ONLY INSIDE the Contract\n  // internal - ONLY INSIDE the Contract and CHILD Contracts\n  // public   - INSIDE & OUTSIDE the Contract\n  // external - ONLY OUTSIDE the Contract\n  // ----------------------------------------------------------------------\n\n  // State variable are stored in the Blockchain\n  string private hello = \"Hello World - Truffle - Ex-2\";\n  uint public specialNumber = 21;\n  // Returns the Greetings - Hello (A State Variable)\n  // View is used to do read-only view of the blockchain data\n  function greeting() public view returns (string memory, string memory) {\n      // Local Variable\n      string memory hello2 = \"Local Hello\";\n      return (hello, hello2);\n  }\n  // Global Variables - Part of Blockchain Data\n  function globalVars() external view returns (address, uint, uint) {\n      address sender = msg.sender;\n      uint time = block.timestamp;\n      uint number = block.number;\n      return (sender, time, number);\n  }\n  // External and Pure (Read only) Calls for local variables\n  function add(uint x, uint y) external pure returns(uint) {\n    return x+y;\n  }\n  // External and View as it reads data from state variable\n  function sub(uint y) external view returns(uint) {\n    return specialNumber-y;\n  }\n  // Event\n  event Log(string func, address sender,  uint value, bytes data);\n  // Fallback\n  fallback() external payable {\n      emit Log(\"fallback\", msg.sender, msg.value, msg.data);\n  }\n  // Receive\n  receive() external payable {\n      emit Log(\"receive\", msg.sender, msg.value, \"\");\n  }\n  /**\n     Ether is sent to Contract\n                    |\n            is msg.data is Empty?\n                   /  \\\n                 Yes    No\n     receive() exists?   fallback()\n            /  \\\n         Yes    No\n    receive()    fallback()\n   */\n }\n",
  "sourcePath": "/Users/arafkarsh/workspace/blockchain/blockchain-qs/ethereum/truffle-ex-2/contracts/VariablesFunctions.sol",
  "compiler": {
    "name": "solc",
    "version": "0.8.14+commit.80d49f37.Emscripten.clang"
  },
  "schemaVersion": "3.4.7",
  "updatedAt": "2022-06-09T02:18:48.053Z",
  "networkType": "ethereum",
  "devdoc": {
    "kind": "dev",
    "methods": {},
    "version": 1
  },
  "userdoc": {
    "kind": "user",
    "methods": {},
    "version": 1
  }
}